{
  "_format": "hh-sol-artifact-1",
  "contractName": "HoboTradersToken",
  "sourceName": "contracts/HTT.sol",
  "abi": [
    {
      "inputs": [
        {
          "internalType": "address",
          "name": "_feeRecipient",
          "type": "address"
        }
      ],
      "stateMutability": "nonpayable",
      "type": "constructor"
    },
    {
      "inputs": [
        {
          "internalType": "address",
          "name": "spender",
          "type": "address"
        },
        {
          "internalType": "uint256",
          "name": "allowance",
          "type": "uint256"
        },
        {
          "internalType": "uint256",
          "name": "needed",
          "type": "uint256"
        }
      ],
      "name": "ERC20InsufficientAllowance",
      "type": "error"
    },
    {
      "inputs": [
        {
          "internalType": "address",
          "name": "sender",
          "type": "address"
        },
        {
          "internalType": "uint256",
          "name": "balance",
          "type": "uint256"
        },
        {
          "internalType": "uint256",
          "name": "needed",
          "type": "uint256"
        }
      ],
      "name": "ERC20InsufficientBalance",
      "type": "error"
    },
    {
      "inputs": [
        {
          "internalType": "address",
          "name": "approver",
          "type": "address"
        }
      ],
      "name": "ERC20InvalidApprover",
      "type": "error"
    },
    {
      "inputs": [
        {
          "internalType": "address",
          "name": "receiver",
          "type": "address"
        }
      ],
      "name": "ERC20InvalidReceiver",
      "type": "error"
    },
    {
      "inputs": [
        {
          "internalType": "address",
          "name": "sender",
          "type": "address"
        }
      ],
      "name": "ERC20InvalidSender",
      "type": "error"
    },
    {
      "inputs": [
        {
          "internalType": "address",
          "name": "spender",
          "type": "address"
        }
      ],
      "name": "ERC20InvalidSpender",
      "type": "error"
    },
    {
      "inputs": [
        {
          "internalType": "address",
          "name": "owner",
          "type": "address"
        }
      ],
      "name": "OwnableInvalidOwner",
      "type": "error"
    },
    {
      "inputs": [
        {
          "internalType": "address",
          "name": "account",
          "type": "address"
        }
      ],
      "name": "OwnableUnauthorizedAccount",
      "type": "error"
    },
    {
      "anonymous": false,
      "inputs": [
        {
          "indexed": true,
          "internalType": "address",
          "name": "owner",
          "type": "address"
        },
        {
          "indexed": true,
          "internalType": "address",
          "name": "spender",
          "type": "address"
        },
        {
          "indexed": false,
          "internalType": "uint256",
          "name": "value",
          "type": "uint256"
        }
      ],
      "name": "Approval",
      "type": "event"
    },
    {
      "anonymous": false,
      "inputs": [
        {
          "indexed": true,
          "internalType": "address",
          "name": "previousOwner",
          "type": "address"
        },
        {
          "indexed": true,
          "internalType": "address",
          "name": "newOwner",
          "type": "address"
        }
      ],
      "name": "OwnershipTransferred",
      "type": "event"
    },
    {
      "anonymous": false,
      "inputs": [
        {
          "indexed": true,
          "internalType": "address",
          "name": "from",
          "type": "address"
        },
        {
          "indexed": true,
          "internalType": "address",
          "name": "to",
          "type": "address"
        },
        {
          "indexed": false,
          "internalType": "uint256",
          "name": "value",
          "type": "uint256"
        }
      ],
      "name": "Transfer",
      "type": "event"
    },
    {
      "inputs": [],
      "name": "INITIAL_SUPPLY",
      "outputs": [
        {
          "internalType": "uint256",
          "name": "",
          "type": "uint256"
        }
      ],
      "stateMutability": "view",
      "type": "function"
    },
    {
      "inputs": [
        {
          "internalType": "address",
          "name": "owner",
          "type": "address"
        },
        {
          "internalType": "address",
          "name": "spender",
          "type": "address"
        }
      ],
      "name": "allowance",
      "outputs": [
        {
          "internalType": "uint256",
          "name": "",
          "type": "uint256"
        }
      ],
      "stateMutability": "view",
      "type": "function"
    },
    {
      "inputs": [
        {
          "internalType": "address",
          "name": "spender",
          "type": "address"
        },
        {
          "internalType": "uint256",
          "name": "value",
          "type": "uint256"
        }
      ],
      "name": "approve",
      "outputs": [
        {
          "internalType": "bool",
          "name": "",
          "type": "bool"
        }
      ],
      "stateMutability": "nonpayable",
      "type": "function"
    },
    {
      "inputs": [
        {
          "internalType": "address",
          "name": "account",
          "type": "address"
        }
      ],
      "name": "balanceOf",
      "outputs": [
        {
          "internalType": "uint256",
          "name": "",
          "type": "uint256"
        }
      ],
      "stateMutability": "view",
      "type": "function"
    },
    {
      "inputs": [
        {
          "internalType": "uint256",
          "name": "amount",
          "type": "uint256"
        }
      ],
      "name": "burn",
      "outputs": [],
      "stateMutability": "nonpayable",
      "type": "function"
    },
    {
      "inputs": [],
      "name": "decimals",
      "outputs": [
        {
          "internalType": "uint8",
          "name": "",
          "type": "uint8"
        }
      ],
      "stateMutability": "view",
      "type": "function"
    },
    {
      "inputs": [],
      "name": "feeBasisPoints",
      "outputs": [
        {
          "internalType": "uint256",
          "name": "",
          "type": "uint256"
        }
      ],
      "stateMutability": "view",
      "type": "function"
    },
    {
      "inputs": [],
      "name": "feeRecipient",
      "outputs": [
        {
          "internalType": "address",
          "name": "",
          "type": "address"
        }
      ],
      "stateMutability": "view",
      "type": "function"
    },
    {
      "inputs": [],
      "name": "name",
      "outputs": [
        {
          "internalType": "string",
          "name": "",
          "type": "string"
        }
      ],
      "stateMutability": "view",
      "type": "function"
    },
    {
      "inputs": [],
      "name": "owner",
      "outputs": [
        {
          "internalType": "address",
          "name": "",
          "type": "address"
        }
      ],
      "stateMutability": "view",
      "type": "function"
    },
    {
      "inputs": [
        {
          "internalType": "address",
          "name": "to",
          "type": "address"
        },
        {
          "internalType": "uint256",
          "name": "amount",
          "type": "uint256"
        }
      ],
      "name": "payWithFee",
      "outputs": [],
      "stateMutability": "nonpayable",
      "type": "function"
    },
    {
      "inputs": [],
      "name": "renounceOwnership",
      "outputs": [],
      "stateMutability": "nonpayable",
      "type": "function"
    },
    {
      "inputs": [
        {
          "internalType": "uint256",
          "name": "_feeBasisPoints",
          "type": "uint256"
        }
      ],
      "name": "setFeeBasisPoints",
      "outputs": [],
      "stateMutability": "nonpayable",
      "type": "function"
    },
    {
      "inputs": [
        {
          "internalType": "address",
          "name": "_feeRecipient",
          "type": "address"
        }
      ],
      "name": "setFeeRecipient",
      "outputs": [],
      "stateMutability": "nonpayable",
      "type": "function"
    },
    {
      "inputs": [],
      "name": "symbol",
      "outputs": [
        {
          "internalType": "string",
          "name": "",
          "type": "string"
        }
      ],
      "stateMutability": "view",
      "type": "function"
    },
    {
      "inputs": [],
      "name": "totalSupply",
      "outputs": [
        {
          "internalType": "uint256",
          "name": "",
          "type": "uint256"
        }
      ],
      "stateMutability": "view",
      "type": "function"
    },
    {
      "inputs": [
        {
          "internalType": "address",
          "name": "to",
          "type": "address"
        },
        {
          "internalType": "uint256",
          "name": "value",
          "type": "uint256"
        }
      ],
      "name": "transfer",
      "outputs": [
        {
          "internalType": "bool",
          "name": "",
          "type": "bool"
        }
      ],
      "stateMutability": "nonpayable",
      "type": "function"
    },
    {
      "inputs": [
        {
          "internalType": "address",
          "name": "from",
          "type": "address"
        },
        {
          "internalType": "address",
          "name": "to",
          "type": "address"
        },
        {
          "internalType": "uint256",
          "name": "value",
          "type": "uint256"
        }
      ],
      "name": "transferFrom",
      "outputs": [
        {
          "internalType": "bool",
          "name": "",
          "type": "bool"
        }
      ],
      "stateMutability": "nonpayable",
      "type": "function"
    },
    {
      "inputs": [
        {
          "internalType": "address",
          "name": "newOwner",
          "type": "address"
        }
      ],
      "name": "transferOwnership",
      "outputs": [],
      "stateMutability": "nonpayable",
      "type": "function"
    }
  ],
  "bytecode": "0x608060405260646007553480156200001657600080fd5b5060405162001f9638038062001f9683398181016040528101906200003c9190620005a1565b336040518060400160405280601281526020017f486f626f205472616465727320546f6b656e00000000000000000000000000008152506040518060400160405280600381526020017f48545400000000000000000000000000000000000000000000000000000000008152508160039081620000ba91906200084d565b508060049081620000cc91906200084d565b505050600073ffffffffffffffffffffffffffffffffffffffff168173ffffffffffffffffffffffffffffffffffffffff1603620001445760006040517f1e4fbdf70000000000000000000000000000000000000000000000000000000081526004016200013b919062000945565b60405180910390fd5b6200015581620001b460201b60201c565b506200016c33633b9aca006200027a60201b60201c565b80600660006101000a81548173ffffffffffffffffffffffffffffffffffffffff021916908373ffffffffffffffffffffffffffffffffffffffff1602179055505062000a37565b6000600560009054906101000a900473ffffffffffffffffffffffffffffffffffffffff16905081600560006101000a81548173ffffffffffffffffffffffffffffffffffffffff021916908373ffffffffffffffffffffffffffffffffffffffff1602179055508173ffffffffffffffffffffffffffffffffffffffff168173ffffffffffffffffffffffffffffffffffffffff167f8be0079c531659141344cd1fd0a4f28419497f9722a3daafe3b4186f6b6457e060405160405180910390a35050565b600073ffffffffffffffffffffffffffffffffffffffff168273ffffffffffffffffffffffffffffffffffffffff1603620002ef5760006040517fec442f05000000000000000000000000000000000000000000000000000000008152600401620002e6919062000945565b60405180910390fd5b62000303600083836200030760201b60201c565b5050565b600073ffffffffffffffffffffffffffffffffffffffff168373ffffffffffffffffffffffffffffffffffffffff16036200035d57806002600082825462000350919062000991565b9250508190555062000433565b60008060008573ffffffffffffffffffffffffffffffffffffffff1673ffffffffffffffffffffffffffffffffffffffff16815260200190815260200160002054905081811015620003ec578381836040517fe450d38c000000000000000000000000000000000000000000000000000000008152600401620003e393929190620009dd565b60405180910390fd5b8181036000808673ffffffffffffffffffffffffffffffffffffffff1673ffffffffffffffffffffffffffffffffffffffff16815260200190815260200160002081905550505b600073ffffffffffffffffffffffffffffffffffffffff168273ffffffffffffffffffffffffffffffffffffffff16036200047e5780600260008282540392505081905550620004cb565b806000808473ffffffffffffffffffffffffffffffffffffffff1673ffffffffffffffffffffffffffffffffffffffff168152602001908152602001600020600082825401925050819055505b8173ffffffffffffffffffffffffffffffffffffffff168373ffffffffffffffffffffffffffffffffffffffff167fddf252ad1be2c89b69c2b068fc378daa952ba7f163c4a11628f55a4df523b3ef836040516200052a919062000a1a565b60405180910390a3505050565b600080fd5b600073ffffffffffffffffffffffffffffffffffffffff82169050919050565b600062000569826200053c565b9050919050565b6200057b816200055c565b81146200058757600080fd5b50565b6000815190506200059b8162000570565b92915050565b600060208284031215620005ba57620005b962000537565b5b6000620005ca848285016200058a565b91505092915050565b600081519050919050565b7f4e487b7100000000000000000000000000000000000000000000000000000000600052604160045260246000fd5b7f4e487b7100000000000000000000000000000000000000000000000000000000600052602260045260246000fd5b600060028204905060018216806200065557607f821691505b6020821081036200066b576200066a6200060d565b5b50919050565b60008190508160005260206000209050919050565b60006020601f8301049050919050565b600082821b905092915050565b600060088302620006d57fffffffffffffffffffffffffffffffffffffffffffffffffffffffffffffffff8262000696565b620006e1868362000696565b95508019841693508086168417925050509392505050565b6000819050919050565b6000819050919050565b60006200072e620007286200072284620006f9565b62000703565b620006f9565b9050919050565b6000819050919050565b6200074a836200070d565b62000762620007598262000735565b848454620006a3565b825550505050565b600090565b620007796200076a565b620007868184846200073f565b505050565b5b81811015620007ae57620007a26000826200076f565b6001810190506200078c565b5050565b601f821115620007fd57620007c78162000671565b620007d28462000686565b81016020851015620007e2578190505b620007fa620007f18562000686565b8301826200078b565b50505b505050565b600082821c905092915050565b6000620008226000198460080262000802565b1980831691505092915050565b60006200083d83836200080f565b9150826002028217905092915050565b6200085882620005d3565b67ffffffffffffffff811115620008745762000873620005de565b5b6200088082546200063c565b6200088d828285620007b2565b600060209050601f831160018114620008c55760008415620008b0578287015190505b620008bc85826200082f565b8655506200092c565b601f198416620008d58662000671565b60005b82811015620008ff57848901518255600182019150602085019450602081019050620008d8565b868310156200091f57848901516200091b601f8916826200080f565b8355505b6001600288020188555050505b505050505050565b6200093f816200055c565b82525050565b60006020820190506200095c600083018462000934565b92915050565b7f4e487b7100000000000000000000000000000000000000000000000000000000600052601160045260246000fd5b60006200099e82620006f9565b9150620009ab83620006f9565b9250828201905080821115620009c657620009c562000962565b5b92915050565b620009d781620006f9565b82525050565b6000606082019050620009f4600083018662000934565b62000a036020830185620009cc565b62000a126040830184620009cc565b949350505050565b600060208201905062000a316000830184620009cc565b92915050565b61154f8062000a476000396000f3fe608060405234801561001057600080fd5b50600436106101215760003560e01c806370a08231116100ad578063a9059cbb11610071578063a9059cbb146102e6578063b8606eef14610316578063dd62ed3e14610334578063e74b981b14610364578063f2fde38b1461038057610121565b806370a0823114610254578063715018a6146102845780638da5cb5b1461028e57806394d0ba96146102ac57806395d89b41146102c857610121565b806323b872dd116100f457806323b872dd146101ae5780632ff2e9dc146101de578063313ce567146101fc57806342966c681461021a578063469048401461023657610121565b80630165dd271461012657806306fdde0314610142578063095ea7b31461016057806318160ddd14610190575b600080fd5b610140600480360381019061013b9190610fdf565b61039c565b005b61014a6103f3565b604051610157919061109c565b60405180910390f35b61017a6004803603810190610175919061111c565b610485565b6040516101879190611177565b60405180910390f35b6101986104a8565b6040516101a591906111a1565b60405180910390f35b6101c860048036038101906101c391906111bc565b6104b2565b6040516101d59190611177565b60405180910390f35b6101e66104e1565b6040516101f391906111a1565b60405180910390f35b6102046104e9565b604051610211919061122b565b60405180910390f35b610234600480360381019061022f9190610fdf565b6104f2565b005b61023e6104ff565b60405161024b9190611255565b60405180910390f35b61026e60048036038101906102699190611270565b610525565b60405161027b91906111a1565b60405180910390f35b61028c61056d565b005b610296610581565b6040516102a39190611255565b60405180910390f35b6102c660048036038101906102c1919061111c565b6105ab565b005b6102d0610622565b6040516102dd919061109c565b60405180910390f35b61030060048036038101906102fb919061111c565b6106b4565b60405161030d9190611177565b60405180910390f35b61031e6106d7565b60405161032b91906111a1565b60405180910390f35b61034e6004803603810190610349919061129d565b6106dd565b60405161035b91906111a1565b60405180910390f35b61037e60048036038101906103799190611270565b610764565b005b61039a60048036038101906103959190611270565b6107b0565b005b6103a4610836565b6103e88111156103e9576040517f08c379a00000000000000000000000000000000000000000000000000000000081526004016103e090611329565b60405180910390fd5b8060078190555050565b60606003805461040290611378565b80601f016020809104026020016040519081016040528092919081815260200182805461042e90611378565b801561047b5780601f106104505761010080835404028352916020019161047b565b820191906000526020600020905b81548152906001019060200180831161045e57829003601f168201915b5050505050905090565b6000806104906108bd565b905061049d8185856108c5565b600191505092915050565b6000600254905090565b6000806104bd6108bd565b90506104ca8582856108d7565b6104d585858561096c565b60019150509392505050565b633b9aca0081565b60006003905090565b6104fc3382610a60565b50565b600660009054906101000a900473ffffffffffffffffffffffffffffffffffffffff1681565b60008060008373ffffffffffffffffffffffffffffffffffffffff1673ffffffffffffffffffffffffffffffffffffffff168152602001908152602001600020549050919050565b610575610836565b61057f6000610ae2565b565b6000600560009054906101000a900473ffffffffffffffffffffffffffffffffffffffff16905090565b6000612710600754836105be91906113d8565b6105c89190611449565b9050600081836105d8919061147a565b90506105e533858361096c565b600082111561061c5761061b33600660009054906101000a900473ffffffffffffffffffffffffffffffffffffffff168461096c565b5b50505050565b60606004805461063190611378565b80601f016020809104026020016040519081016040528092919081815260200182805461065d90611378565b80156106aa5780601f1061067f576101008083540402835291602001916106aa565b820191906000526020600020905b81548152906001019060200180831161068d57829003601f168201915b5050505050905090565b6000806106bf6108bd565b90506106cc81858561096c565b600191505092915050565b60075481565b6000600160008473ffffffffffffffffffffffffffffffffffffffff1673ffffffffffffffffffffffffffffffffffffffff16815260200190815260200160002060008373ffffffffffffffffffffffffffffffffffffffff1673ffffffffffffffffffffffffffffffffffffffff16815260200190815260200160002054905092915050565b61076c610836565b80600660006101000a81548173ffffffffffffffffffffffffffffffffffffffff021916908373ffffffffffffffffffffffffffffffffffffffff16021790555050565b6107b8610836565b600073ffffffffffffffffffffffffffffffffffffffff168173ffffffffffffffffffffffffffffffffffffffff160361082a5760006040517f1e4fbdf70000000000000000000000000000000000000000000000000000000081526004016108219190611255565b60405180910390fd5b61083381610ae2565b50565b61083e6108bd565b73ffffffffffffffffffffffffffffffffffffffff1661085c610581565b73ffffffffffffffffffffffffffffffffffffffff16146108bb5761087f6108bd565b6040517f118cdaa70000000000000000000000000000000000000000000000000000000081526004016108b29190611255565b60405180910390fd5b565b600033905090565b6108d28383836001610ba8565b505050565b60006108e384846106dd565b90507fffffffffffffffffffffffffffffffffffffffffffffffffffffffffffffffff8110156109665781811015610956578281836040517ffb8f41b200000000000000000000000000000000000000000000000000000000815260040161094d939291906114ae565b60405180910390fd5b61096584848484036000610ba8565b5b50505050565b600073ffffffffffffffffffffffffffffffffffffffff168373ffffffffffffffffffffffffffffffffffffffff16036109de5760006040517f96c6fd1e0000000000000000000000000000000000000000000000000000000081526004016109d59190611255565b60405180910390fd5b600073ffffffffffffffffffffffffffffffffffffffff168273ffffffffffffffffffffffffffffffffffffffff1603610a505760006040517fec442f05000000000000000000000000000000000000000000000000000000008152600401610a479190611255565b60405180910390fd5b610a5b838383610d7f565b505050565b600073ffffffffffffffffffffffffffffffffffffffff168273ffffffffffffffffffffffffffffffffffffffff1603610ad25760006040517f96c6fd1e000000000000000000000000000000000000000000000000000000008152600401610ac99190611255565b60405180910390fd5b610ade82600083610d7f565b5050565b6000600560009054906101000a900473ffffffffffffffffffffffffffffffffffffffff16905081600560006101000a81548173ffffffffffffffffffffffffffffffffffffffff021916908373ffffffffffffffffffffffffffffffffffffffff1602179055508173ffffffffffffffffffffffffffffffffffffffff168173ffffffffffffffffffffffffffffffffffffffff167f8be0079c531659141344cd1fd0a4f28419497f9722a3daafe3b4186f6b6457e060405160405180910390a35050565b600073ffffffffffffffffffffffffffffffffffffffff168473ffffffffffffffffffffffffffffffffffffffff1603610c1a5760006040517fe602df05000000000000000000000000000000000000000000000000000000008152600401610c119190611255565b60405180910390fd5b600073ffffffffffffffffffffffffffffffffffffffff168373ffffffffffffffffffffffffffffffffffffffff1603610c8c5760006040517f94280d62000000000000000000000000000000000000000000000000000000008152600401610c839190611255565b60405180910390fd5b81600160008673ffffffffffffffffffffffffffffffffffffffff1673ffffffffffffffffffffffffffffffffffffffff16815260200190815260200160002060008573ffffffffffffffffffffffffffffffffffffffff1673ffffffffffffffffffffffffffffffffffffffff168152602001908152602001600020819055508015610d79578273ffffffffffffffffffffffffffffffffffffffff168473ffffffffffffffffffffffffffffffffffffffff167f8c5be1e5ebec7d5bd14f71427d1e84f3dd0314c0f7b2291e5b200ac8c7c3b92584604051610d7091906111a1565b60405180910390a35b50505050565b600073ffffffffffffffffffffffffffffffffffffffff168373ffffffffffffffffffffffffffffffffffffffff1603610dd1578060026000828254610dc591906114e5565b92505081905550610ea4565b60008060008573ffffffffffffffffffffffffffffffffffffffff1673ffffffffffffffffffffffffffffffffffffffff16815260200190815260200160002054905081811015610e5d578381836040517fe450d38c000000000000000000000000000000000000000000000000000000008152600401610e54939291906114ae565b60405180910390fd5b8181036000808673ffffffffffffffffffffffffffffffffffffffff1673ffffffffffffffffffffffffffffffffffffffff16815260200190815260200160002081905550505b600073ffffffffffffffffffffffffffffffffffffffff168273ffffffffffffffffffffffffffffffffffffffff1603610eed5780600260008282540392505081905550610f3a565b806000808473ffffffffffffffffffffffffffffffffffffffff1673ffffffffffffffffffffffffffffffffffffffff168152602001908152602001600020600082825401925050819055505b8173ffffffffffffffffffffffffffffffffffffffff168373ffffffffffffffffffffffffffffffffffffffff167fddf252ad1be2c89b69c2b068fc378daa952ba7f163c4a11628f55a4df523b3ef83604051610f9791906111a1565b60405180910390a3505050565b600080fd5b6000819050919050565b610fbc81610fa9565b8114610fc757600080fd5b50565b600081359050610fd981610fb3565b92915050565b600060208284031215610ff557610ff4610fa4565b5b600061100384828501610fca565b91505092915050565b600081519050919050565b600082825260208201905092915050565b60005b8381101561104657808201518184015260208101905061102b565b60008484015250505050565b6000601f19601f8301169050919050565b600061106e8261100c565b6110788185611017565b9350611088818560208601611028565b61109181611052565b840191505092915050565b600060208201905081810360008301526110b68184611063565b905092915050565b600073ffffffffffffffffffffffffffffffffffffffff82169050919050565b60006110e9826110be565b9050919050565b6110f9816110de565b811461110457600080fd5b50565b600081359050611116816110f0565b92915050565b6000806040838503121561113357611132610fa4565b5b600061114185828601611107565b925050602061115285828601610fca565b9150509250929050565b60008115159050919050565b6111718161115c565b82525050565b600060208201905061118c6000830184611168565b92915050565b61119b81610fa9565b82525050565b60006020820190506111b66000830184611192565b92915050565b6000806000606084860312156111d5576111d4610fa4565b5b60006111e386828701611107565b93505060206111f486828701611107565b925050604061120586828701610fca565b9150509250925092565b600060ff82169050919050565b6112258161120f565b82525050565b6000602082019050611240600083018461121c565b92915050565b61124f816110de565b82525050565b600060208201905061126a6000830184611246565b92915050565b60006020828403121561128657611285610fa4565b5b600061129484828501611107565b91505092915050565b600080604083850312156112b4576112b3610fa4565b5b60006112c285828601611107565b92505060206112d385828601611107565b9150509250929050565b7f46656520746f6f20686967680000000000000000000000000000000000000000600082015250565b6000611313600c83611017565b915061131e826112dd565b602082019050919050565b6000602082019050818103600083015261134281611306565b9050919050565b7f4e487b7100000000000000000000000000000000000000000000000000000000600052602260045260246000fd5b6000600282049050600182168061139057607f821691505b6020821081036113a3576113a2611349565b5b50919050565b7f4e487b7100000000000000000000000000000000000000000000000000000000600052601160045260246000fd5b60006113e382610fa9565b91506113ee83610fa9565b92508282026113fc81610fa9565b91508282048414831517611413576114126113a9565b5b5092915050565b7f4e487b7100000000000000000000000000000000000000000000000000000000600052601260045260246000fd5b600061145482610fa9565b915061145f83610fa9565b92508261146f5761146e61141a565b5b828204905092915050565b600061148582610fa9565b915061149083610fa9565b92508282039050818111156114a8576114a76113a9565b5b92915050565b60006060820190506114c36000830186611246565b6114d06020830185611192565b6114dd6040830184611192565b949350505050565b60006114f082610fa9565b91506114fb83610fa9565b9250828201905080821115611513576115126113a9565b5b9291505056fea264697066735822122087ce6c8d0b3ae070af34af66b3b49ac5ae6516514ac98aa1c0ec50494d468e6c64736f6c63430008150033",
  "linkReferences": {},
  "deployedLinkReferences": {}
}